:100000000C945A000C9477000C9477000C947700B1
:100010000C9477000C9477000C9477000C94770084
:100020000C9477000C9477000C9477000C94770074
:100030000C9477000C9477000C9477000C94770064
:100040000C9477000C9477000C9477000C945A036E
:100050000C9477000086227E6DD24620290B2170F9
:10006000104080523F065B4F666D7D077F6F090D24
:10007000614843D35F777C395E79713D76301E7578
:100080003815373F736B336D783E3E2A766E5B3999
:10009000640F2308025F7C585E7B716F74100C75CF
:1000A0003014545C7367506D781C1C14766E5B467C
:1000B0003070010011241FBECFE5D4E0DEBFCDBFFC
:1000C00010E0A0E6B0E0E2E9FBE002C005900D928E
:1000D000AE37B107D9F720E0AEE7B0E001C01D921E
:1000E000A23BB207E1F70E9497040C94C7050C9459
:1000F0000000089540E064E085E790E00E94F5008C
:100100009093AD008093AC0040E063E08FE690E018
:100110000E94F5009093AB008093AA0041E067E64F
:1001200070E08091AC009091AD000E94820141E0AE
:1001300067E670E08091AA009091AB000E94820176
:1001400048EE53E060E070E08FE790E00C943004FC
:10015000089580917E00811112C08FE790E00E9487
:100160004A0481110CC041E06BE670E08091AC0064
:100170009091AD000E94820181E080937E00809189
:100180007E00813001F520E044EF51E060E070E056
:100190008091AC009091AD000E940E03882399F0ED
:1001A00041E067E670E08091AC009091AD000E9464
:1001B000820148EE53E060E070E08FE790E00E943B
:1001C000300410927E00089510928C008DE890E02B
:1001D00090938A0080938900A09AA19AA29AA39AE8
:1001E000A49AA59AA69AA79A0895CF92DF92EF9221
:1001F000FF920F931F93CF93DF9300918C000230F7
:1002000018F080E090E075C0E42EF62E6C0166E0F8
:10021000069F80011124E801C357DF4F8F2D90E026
:100220000E94A6049B838A83009759F34F2D60E0B8
:100230000E948E04C882D982F801EE56FF4F2081B9
:10024000207E3F2D3F71232BE0FA25F92083D60134
:1002500020E02F1509F447C08D919C9111970097CC
:1002600079F03FB7F894FC0187FD02C0FF2703C077
:10027000EF77FF27F16031978081892B80833FBF23
:100280008D919D91009769F13FB7F894AC0140784A
:10029000552761E0E6120BC0FC01452B11F4FF2746
:1002A00003C0EF77FF27F1608081892B18C062E0DF
:1002B000FC01E6120AC0452B11F4FF2703C0EF77BB
:1002C000FF27F160808189270AC0452B11F4FF27A1
:1002D00003C0EF77FF27F1608081909589238083A9
:1002E0003FBF2F5FB6CF80918C008F5F80938C00D3
:1002F000CE01DF91CF911F910F91FF90EF90DF9092
:10030000CF900895AF92BF92CF92DF92EF92FF927B
:100310000F931F93CF93DF938C016B01B42E82E078
:10032000841708F4B12CE60109900020E9F7219721
:10033000CC19DD09AC2ECE0199270E94A6047C01C0
:100340004C2F60E00E948E043C2DC701D6012A2F5D
:10035000231B2A1548F4ED91F0E0EC5CFF4F24914B
:10036000FC012193CF01F3CFF80145814F714C1768
:1003700008F4C42FF1E0BF1208C0842F90E08C1B5A
:10038000910995958795D82F07C082E0B81203C0D0
:10039000D42FDC1B01C0D0E060E0F80182819381A2
:1003A0000E948E04F801828193814C2FB7018D0F3A
:1003B000911D0E948204C701DF91CF911F910F917F
:1003C000FF90EF90DF90CF90BF90AF900C943E05E0
:1003D000E0918900F0918A0085818F7109F41DC137
:1003E0009481308121819923E9F08FEF890FE32FE8
:1003F000F22FE80FF11DE80FF11D80819181009728
:1004000009F440C02FB7F894FC0187FD02C0FF2714
:1004100003C0EF77FF27F160808190958923808367
:100420002FBF30C08150E32FF22FE80FF11DE80FEE
:10043000F11D80819181009779F02FB7F894FC012C
:1004400087FD02C0FF2703C0EF77FF27F16080819F
:100450009095892380832FBF80918B0021E0280F06
:1004600020938B0036E0839FC001112483579F4F58
:1004700090938A008093890080918C00281710F057
:1004800010928B00E0918900F0918A00248130E085
:10049000A281B381A20FB31F8C91220F331FA081C1
:1004A000B181A20FB31F4D915C914115510581F0AF
:1004B0006FB7F894DA0147FD02C0BB2703C0AF77DE
:1004C000BB27B1609C91452F409594239C936FBFAF
:1004D000882309F493C0958195FB992790F9482FBB
:1004E000417094274FB7F894913011F4A89A01C045
:1004F000A8984FBF81FB992790F9458145FB442778
:1005000040F994274FB7F894913011F4A99A01C09B
:10051000A9984FBF82FB992790F9458145FB442755
:1005200040F994274FB7F894913011F4AA9A01C07A
:10053000AA984FBF83FB992790F9458145FB442733
:1005400040F994274FB7F894913011F4AB9A01C059
:10055000AB984FBF84FB992790F9458145FB442711
:1005600040F994274FB7F894913011F4AC9A01C038
:10057000AC984FBF9581982795FB992790F94FB775
:10058000F894913011F4AD9A01C0AD984FBF86FB3D
:10059000992790F9458145FB442740F994274FB7A7
:1005A000F894913011F4AE9A01C0AE984FBF881FF5
:1005B0008827881F958195FB992790F989279FB7F0
:1005C000F894813011F4AF9A01C0AF989FBF808139
:1005D0009181FC01E20FF31F80819181009771F0FE
:1005E0002FB7F894FC0187FD02C0FF2703C0EF7707
:1005F000FF27F1608081892B80832FBFE0918900E4
:10060000F0918A0084818F5F848390E025812F712F
:1006100030E0821793070CF0148208951F93CF9354
:10062000DF93EC01122F8091660081110AC085E8EA
:1006300090E00E944A04811134C091E090936600DA
:1006400035C08091840090E02D812F7130E08217B9
:1006500093074CF520918300E22FF0E0EC59FF4F17
:10066000E491AA81BB81A80FB91FEC932F5F20935F
:1006700083001092660085E890E00E94300480912B
:1006800083008A3070F080918400111105C0EA81E6
:10069000FB81E80FF11D1082109283008F5F809321
:1006A000840080E003C01092840081E0DF91CF914C
:1006B0001F9108951F920F920FB60F9211242F933E
:1006C0003F934F935F936F937F938F939F93AF93DA
:1006D000BF93EF93FF938091A2009091A300A0910C
:1006E000A400B091A5000196A11DB11D8093A200A8
:1006F0009093A300A093A400B093A50080919D00C7
:10070000815E80939D0080919D008D37C0F0809127
:100710009D008D5780939D008091A2009091A30031
:10072000A091A400B091A5000196A11DB11D8093D8
:10073000A2009093A300A093A400B093A500809181
:100740009B0090919C008F38914050F480919B00C9
:1007500090919C00019690939C0080939B0023C0F5
:1007600010929C0010929B008091990091E0892743
:100770008093990090939A0080919900811113C001
:1007800080919E0090919F00A091A000B091A10047
:100790000196A11DB11D80939E0090939F00A09390
:1007A000A000B093A1000E94E8010E94A8008091DF
:1007B000A6009091A700A091A800B091A900019671
:1007C000A11DB11D8093A6009093A700A093A8003F
:1007D000B093A900FF91EF91BF91AF919F918F913D
:1007E0007F916F915F914F913F912F910F900FBE2D
:1007F0000F901F90189589B7826089BF78940895EB
:100800001092A6001092A7001092A8001092A900C2
:100810001092A2001092A3001092A4001092A500C2
:100820001092990081E080939A0010929E0010929D
:100830009F001092A0001092A10010929D001092B3
:100840009C0010929B0008952FB7F8946091A2002D
:100850007091A3008091A4009091A5002FBF0895EE
:10086000CF92DF92EF92FF92CF93DF93EC016A0178
:100870007B010E942404C60ED71EE81EF91EC88202
:10088000D982EA82FB82DF91CF91FF90EF90DF90D7
:10089000CF900895CF92DF92EF92FF920F931F9324
:1008A000FC01C080D180E280F380F7FE02C080E0CE
:1008B00010C00E94240497018601062717272827C5
:1008C000392737FD05C06C157D058E059F0578F726
:1008D00081E01F910F91FF90EF90DF90CF900895EE
:1008E00083B78B7F83BF83B7826083BF83B7816009
:1008F00083BF83B7886083BF83B78F7B83BF87ED58
:100900008CBF0895362FFB012E2F231B241728F4AC
:100910002191DC012D93CD01F7CF0895282FFC0103
:100920008E2F821B841710F46193FACF08950E94D2
:1009300079000E9470040E9400040E94E4000E945A
:100940007A000E94FB030E94A900FDCF0F931F9322
:10095000CF93DF938230910510F482E090E0E09134
:10096000B000F091B10020E030E0A0E0B0E03097BE
:1009700019F1408151810281138148175907C8F04C
:100980008417950769F4109731F012960C9312971B
:1009900013961C9327C00093B0001093B10022C09F
:1009A0002115310519F04217530718F49A01BD01BA
:1009B000EF01DF01F801DBCF21153105F9F0281B2C
:1009C000390B2430310580F48A819B8161157105D2
:1009D00021F0FB019383828304C09093B100809344
:1009E000B000FE01329644C0FE01E20FF31F819376
:1009F000919322503109398328833AC02091AE0067
:100A00003091AF00232B41F42091620030916300BC
:100A10003093AF002093AE002091600030916100D0
:100A20002115310541F42DB73EB740916400509136
:100A30006500241B350BE091AE00F091AF00E2178A
:100A4000F307A0F42E1B3F0B2817390778F0AC01F1
:100A50004E5F5F4F2417350748F04E0F5F1F5093CE
:100A6000AF004093AE008193919302C0E0E0F0E0CC
:100A7000CF01DF91CF911F910F910895CF93DF9315
:100A8000009709F481C0FC01329713821282A09171
:100A9000B000B091B100109781F420813181820FB4
:100AA000931F2091AE003091AF002817390751F500
:100AB000F093AF00E093AE0067C0ED0120E030E0BE
:100AC000CE17DF0740F44A815B819E014115510535
:100AD000F1F0EA01F5CFD383C28340815181840FC5
:100AE000951FC817D90759F488819981840F951FDC
:100AF0000296918380838A819B81938382832115CF
:100B0000310529F4F093B100E093B0003DC0E90154
:100B1000FB83EA8349915991C40FD51FEC17FD0758
:100B200061F480819181840F951F0296E901998378
:100B30008883828193819B838A83E0E0F0E0129630
:100B40008D919C911397009719F0FD01DC01F7CF6F
:100B50008D919C9111979D012E5F3F4F820F931FA6
:100B60002091AE003091AF002817390769F4309713
:100B700029F41092B1001092B00002C013821282C8
:100B8000B093AF00A093AE00DF91CF910895F89499
:020B9000FFCF95
:100B92000000B2002000016F464600202020003BEA
:0E0BA200083B103B2038013B013B023B0400A6
:00000001FF
